:10C0000090060120EDCF000007F200001DD00000D7
:10C010001DD000001DD000001DD000001DD000006C
:10C0200000000000000000000000000049CF0000F8
:10C030001DD0000000000000F1CE0000E7F100007C
:10C04000ADCF0000ADCF0000ADCF0000ADCF000000
:10C05000ADCF0000ADCF0000ADCF0000ADCF0000F0
:10C06000ADCF0000ADCF0000ADCF0000ADCF0000E0
:10C07000ADCF0000ADCF0000ADCF0000ADCF0000D0
:10C08000ADCF0000ADCF0000ADCF0000ADCF0000C0
:10C09000ADCF0000ADCF0000ADCF0000ADCF0000B0
:10C0A000ADCF0000ADCF0000ADCF0000ADCF0000A0
:10C0B000ADCF0000ADCF0000ADCF0000ADCF000090
:10C0C000ADCF0000ADCF0000ADCF0000ADCF000080
:10C0D000ADCF0000ADCF0000ADCF0000ADCF000070
:10C0E000ADCF0000ADCF0000ADCF0000ADCF000060
:10C0F000ADCF0000ADCF0000ADCF0000ADCF000050
:10C10000ADCF0000ADCF0000ADCF0000ADCF00003F
:10C11000ADCF0000ADCF0000ADCF0000ADCF00002F
:10C12000ADCF0000ADCF0000ADCF0000ADCF00001F
:10C13000ADCF0000ADCF0000ADCF0000ADCF00000F
:10C14000ADCF000000000000000000000000000073
:10C1500000000000000000000000000000000000DF
:10C1600000000000000000000000000000000000CF
:10C1700000000000000000000000000000000000BF
:10C1800000000000000000000000000000000000AF
:10C19000000000000000000000000000000000009F
:10C1A000000000000000000000000000000000008F
:10C1B000000000000000000000000000000000007F
:10C1C000000000000000000000000000000000006F
:10C1D000000000000000000000000000000000005F
:10C1E000000000000000000000000000000000004F
:10C1F000000000000000000000000000000000003F
:10C20000DEE61E284CBBCE8F025B00003C00000027
:10C21000103C00000100000000C0000000C0000051
:10C22000FFFF02910000000000000000000000007D
:0CC2300000000000000000000000000002
:10C23C0053B94AB9002908BF00281CBF4FF0FF3181
:10C24C004FF0FF3000F070B9ADF1080C6DE904CE81
:10C25C0000F006F8DDF804E0DDE9022304B07047D5
:10C26C002DE9F04F099E04468946002B40F083804F
:10C27C008A42154645D9B2FA82F24AB1C2F1200778
:10C28C0001FA02F39540944020FA07F747EA0309B4
:10C29C004FEA154E230C1FFA85F8B9FBFEFC0EFB7A
:10C2AC001C990CFB08F143EA094399420AD9EB1893
:10C2BC002CBF01200020994202D9002800F01D81DA
:10C2CC000CF1FF3C591AA3B2B1FBFEF00EFB10119E
:10C2DC0000FB08F843EA0144A04505D92C1902D209
:10C2EC00A04500F20E810138A4EB080440EA0C4092
:10C2FC0000271EB1D4400023C6E900433946BDE8EF
:10C30C00F08F002A51D0B2FA82F2002A40F0AF80AE
:10C31C00491B4FEA154E1FFA85F80127230CB1FB78
:10C32C00FEFC0EFB1C1108FB0CF043EA0143984287
:10C33C000AD9EB182CBF01210021984202D90029FF
:10C34C0000F0D7800CF1FF3C191AA3B2B1FBFEF040
:10C35C000EFB101108FB00F843EA0144A04505D977
:10C36C002C1902D2A04500F2C1800138A4EB0804BC
:10C37C0040EA0C40BDE78B4208D9002E74D0002750
:10C38C00C6E9000138463946BDE8F08FB3FA83F7A9
:10C39C0067B98B42C0F0A480824240F2A18038463B
:10C3AC00002EABD0C6E90049A8E7FFDEC7F1200597
:10C3BC00BB4002FA07FC01FA07F4EA4020FA05F840
:10C3CC00E94000FA07FE1A4348EA04044FEA12480F
:10C3DC00200C1FFA82F9B1FBF8FA08FB1A110AFBC0
:10C3EC0009FB40EA01418B450AD951182CBF0123A6
:10C3FC0000238B4502D9002B00F088800AF1FF3A0C
:10C40C00A1EB0B01A4B2B1FBF8F008FB101100FB7F
:10C41C0009F944EA0141894504D9511801D28945E9
:10C42C007BD8013840EA0A40A1EB0901A0FB0C893A
:10C43C00494544464B4602D306D1C64504D2013881
:10C44C00B8EB0C0469EB0203002E5DD0BEEB0402CA
:10C45C0061EB030101FA05F522FA07F3F940002715
:10C46C001D43C6E9005149E73746304646E7C2F15D
:10C47C002000954001FA02F721FA00F34FEA154E1D
:10C48C0024FA00F11FFA85F894403943B3FBFEF00F
:10C49C000F0C0EFB103300FB08FC47EA03439C45D2
:10C4AC0007D9EB182CBF012700279C4500D98FB367
:10C4BC000138A3EB0C0389B2B3FBFEF70EFB173369
:10C4CC0007FB08FC41EA03418C4504D9691801D2E9
:10C4DC008C4525D8013FA1EB0C0147EA00471DE72D
:10C4EC00841A61EB03030120994659E702382C4466
:10C4FC003CE7ACF1020C2B4426E7ACF1020C2B44CC
:10C50C00E0E602382C44EFE63746F7E6AAF1020AD9
:10C51C00114475E702382B44CBE70238114481E70C
:10C52C00023F2944D7E700BF704700BF08B5134B43
:10C53C001A7882F001021A70114B1868C3681B68D4
:10C54C0003F4803372B153B98368DB684FF48031E4
:10C55C00984701460B48BDE8084002F007BC8368C9
:10C56C001B69F3E73BB18368DB684FF48031984774
:10C57C0001460548EFE783681B69F6E7880201204E
:10C58C009801012073FA00008EFA000010B50C48D7
:10C59C0001F04EFC0B4AC468106083684FF40072C3
:10C5AC001B681021984718B9236823F48033236043
:10C5BC00FFF7BCFF00214FF4C03002F035F8F7E76D
:10C5CC006CFA0000980101200B6801330B60014BE1
:10C5DC001B681847000001202DE9F04F87B00F466B
:10C5EC001946109B06461425104698469DF844B0F3
:10C5FC009DF848A01C4C4FEAE37950EA01031AD18C
:10C60C00142D08BF3023139C18BF01352C4408BFD0
:10C61C008DF81430152C17D0153C002C16DC1DF899
:10C62C00050039460135B047152DF8D1002C15DC25
:10C63C0007B0BDE8F08F42464B46FFF7F9FDA35C0F
:10C64C000DF80530013DD8E70024E8E7BBF1000FF9
:10C65C00E5D039465046B047013CDEE739465046F6
:10C66C00B047013CE2E700BFA9FA0000014B18609B
:10C67C00704700BF00000120002307B5024601935C
:10C68C0003480B4601A902F05DFA03B05DF804FB08
:10C69C00D5C500002DE9F84FB0F81890044619F0F4
:10C6AC0008080DD001290CBF49F0100949F02009E8
:10C6BC00A0F8189082F31188BFF36F8FBDE8F88F44
:10C6CC0009F00709022907D1204602F05CFB00287B
:10C6DC00F0D00128238B4AD16769238B002F15DA00
:10C6EC002568C4E9008823F0070343F00103238382
:10C6FC000026238B03F0070ACA4502D0A168002943
:10C70C0056D10DB9002E6DD0002152E003F0070177
:10C71C00481F01281CD823F00703062925689BB263
:10C72C00C4E900880AD13DB12846618B006801310B
:10C73C0089B20028FAD1618343F002032383204697
:10C74C0002F021FB0028D3D0238B43F02003CEE74B
:10C75C0004290AD123F0070399B22183204602F061
:10C76C0012FB10B141F0200121830025C0E7032802
:10C77C0009D1216923F007030E6843F00603002555
:10C78C0023832F46B5E7042806D1216923F007033C
:10C79C004E6843F00403F2E7052806D1216923F023
:10C7AC0007038E6843F00503E9E700252E46E8E70A
:10C7BC00012143F00803238382F31188BFF36F8FA9
:10C7CC00F9B985BB16B121492046B0474FF020037B
:10C7DC00EFF3118283F31188BFF36F8F238B23F058
:10C7EC0008032383238BD90627D5012123F01003BB
:10C7FC002383B4F8189009F0070900297FF462AF7D
:10C80C0058E7A1680029DCD0D1F80090D1F804B029
:10C81C003B4652462046D847B9F1000FD1D0494685
:10C82C00D9F80090F2E7D5F8009029463B465246DD
:10C83C00204602F0C4FA4D46C3E713F020011EBF98
:10C84C0023F0200323830221D3E700BFF7ED000080
:10C85C004FF02002EFF3118382F31188BFF36F8F37
:10C86C000121044AC2F8401583F31188BFF36F8F7E
:10C87C00002070470090034020B1034B800143F02F
:10C88C0001031847704700BFA0F9000010B5074816
:10C89C0001F0CEFA064C074B1860204600F064FEFF
:10C8AC002046FFF7E3FE002010BD00BFBAFA0000DF
:10C8BC00C5C800009C0101200A2838B50446074D64
:10C8CC0004D1286883680D215B68984728688368C1
:10C8DC00E1B25B689847204638BD00BF9C0101203F
:10C8EC000E4A70B5841A05460C200E464021A31042
:10C8FC000B4C5C43E4B200FB0420084402F0DFFB69
:10C90C00011E05DB074B03EBC40463689847002149
:10C91C0028463346BDE87040184700BFB0010120DF
:10C92C00B76DDBB6BCF900002DE9F0410C25104EBB
:10C93C008046841BA3100F4C0F465C43E4B2654346
:10C94C0005F140004021304402F0D2FB011E09DB0E
:10C95C00094A7319C3E90E27084B53F83430BDE864
:10C96C00F041184740463B46BDE8F041184700BF30
:10C97C00B0010120B76DDBB65FF10000BCF900001F
:10C98C0070B5002201210446052000F03BFA052079
:10C99C0000F01AFA0F4801F057F90F4B984215D1D5
:10C9AC0002F07EFDE6680D49304602F03BFA0028A5
:10C9BC000BDB01253564E468084904F11C0002F026
:10C9CC0031FA002801DB0020E56470BD6FF0040033
:10C9DC00FBE700BF85CA00000000AD0BCCF90000DE
:10C9EC0001460C2300224B43084870B5C418403351
:10C9FC00D4E90E561844A26302F098FB2DB13246CE
:10CA0C002B46BDE870400248184770BDB0010120AC
:10CA1C003C00012008B54FF02003EFF3118183F3A4
:10CA2C001188BFF36F8F114A136843F0020013F0A3
:10CA3C00010310600BD00E4AD2F80C34D2F80C243F
:10CA4C0013F0010303D00B4802F070FB012381F3B8
:10CA5C001188BFF36F8F23B1BDE808400020FFF7AA
:10CA6C00BFBF0120BDE8084001F0FEB80002012064
:10CA7C0000500040F001012010B1012804D0704793
:10CA8C00034B1B6C5B0701D1FFF7AABF704700BFBC
:10CA9C00B0010120074BD3E8EF2F22F00201C3E8CD
:10CAAC00E01F0028F7D1D30702D4012001F00EB902
:10CABC00704700BF000201200023012210B588B08E
:10CACC00CDE906320193094B04AC01AACDE904442B
:10CADC00CDE9023402F063FB002805DB4FF4804201
:10CAEC000023204601F0E6FD08B010BD71F10000F6
:10CAFC002DE9F843012206463449D1E8EF3FC1E85D
:10CB0C00E02F0028F9D133B9314932484B60CB6062
:10CB1C008A6002F09AF9731E012B2CD8012E06D1D3
:10CB2C002D4BD3F81C3403F00303022B23D002F05B
:10CB3C0085FD18B9294B1B78002B40D14FF02003F1
:10CB4C00EFF3118983F31188BFF36F8F0124224D0A
:10CB5C00234FA846D5F81834D5F81824D2030CD591
:10CB6C0003F00303022B01D0012E06D11CB389F371
:10CB7C001188BFF36F8FBDE8F883BCB1484600F055
:10CB8C0001FAD5F81835DBB2012BE3D13A68002A4B
:10CB9C00E0D000223A603A6802222021C5F818251C
:10CBAC00104AC2F88011104A1360D3E700212120EB
:10CBBC0001F03AFDE5E70223C8F80433DBE7022273
:10CBCC00054B0446C3F808238146C0E70402012044
:10CBDC00A0010120CC010120005000408B0201205B
:10CBEC000451004000E100E008500040821C084B5A
:10CBFC0022F07F42C3F84025D3F80425904200D19F
:10CC0C007047D3F80405821C22F07F42F2E700BF84
:10CC1C00005001400022074B1A601B68064A074B64
:10CC2C00D3F840051368C01A20F07F40034413600A
:10CC3C0001F0CCBE405101400802012000500140DF
:10CC4C0038B500244FF400120E4D0F4BC5F80845B3
:10CC5C001C601B680D4B0121C3F880214FF48033FD
:10CC6C002246C5F80433152000F0CCF8152000F04E
:10CC7C00ABF80123064A022013602B60FFF738FF44
:10CC8C00204638BD005001404051014000E100E019
:10CC9C0008500140F8B52D4B2D4CD3F804252D4BE5
:10CCAC00B0F1FF3F08BF20461968521A22F07F43AB
:10CCBC00120238D4013820EAE070A042A8BF204606
:10CCCC0001331844A04294BF0C180C194FF4803057
:10CCDC0000261E4A204DC2F80803D2F80415D2F8DB
:10CCEC0040352E605B1A23F07F432F68012B21F017
:10CCFC007F47C2F84075C2F8440304D10F2002F0FC
:10CD0C00A3FC2E602B684FF40012144BC3F8802147
:10CD1C000E4BD3F80405221A22F07F42012A04D1CB
:10CD2C00FFF764FF0BE00020CAE724F07F42C3F852
:10CD3C004025D3F80405241A023C2302F0D44FF406
:10CD4C008032024BC3F80423F8BD00BF00500140F1
:10CD5C00FFFF7F00080201204051014000E100E08C
:10CD6C004FF02002EFF3118382F31188BFF36F8F22
:10CD7C00064AD2F80405064A1268801A20F07F4051
:10CD8C0083F31188BFF36F8F704700BF00500140D1
:10CD9C0008020120094A0A49936809689867D9670B
:10CDAC0008494B6843F080534B60002383F3118890
:10CDBC00BFF36F8F9368D86F704700BF4802012094
:10CDCC0068FA000000ED00E043B2002B08DB012202
:10CDDC0000F01F0002FA00F0024A5B0942F823003F
:10CDEC00704700BF00E100E0054B420953F82220D8
:10CDFC00012300F01F0003FA00F01040704700BF41
:10CE0C0000E100E043B2002B01F10101A8BF03F1E6
:10CE1C0060434FEA4111B8BF054BC9B2ABBF03F534
:10CE2C00614300F00F0083F800131954704700BFE2
:10CE3C0014ED00E042F8203C009B0B4942F81C3CEE
:10CE4C00019B21F0010142F8183C029B42F8081C9E
:10CE5C0042F8143C4FF0807342F8043C0023203A13
:10CE6C0082658367704700BFE9EE0000044608B591
:10CE7C000E46154600F006FA084B9C60A36E83F331
:10CE8C000B88284686F30988002163B681F3118844
:10CE9C00BFF36F8F0022002302F020F8480201201C
:10CEAC000E4A08B50E4B22F07F029A60BFF34F8FEB
:10CEBC00BFF36F8FD3F8882022F47002C3F8882058
:10CECC00EFF3148323F0040383F3148800F0F2FFD0
:10CEDC0000F0FAFF00F09EF901F034F800C00000F9
:10CEEC0000ED00E013498A684FF038001044EFF36E
:10CEFC00098C80E8F01F202080F31188BFF36F8F1E
:10CF0C000D4F4FF000664A6A8A603E60906F0023B6
:10CF1C00936780F3118802F1380090E8F01F8CF3CE
:10CF2C00098802F1000004B502F05DF9BDE8044087
:10CF3C00704700004802012004ED00E01EF0040FD1
:10CF4C000CBFEFF30880EFF30980816911F8021C24
:10CF5C000229FFD001B502F04CF901BD01491022A4
:10CF6C000A60704710ED00E072B6404080F3118803
:10CF7C00BFF36F8FBFF34F8F30BF62B6BFF36F8FAE
:10CF8C00704700BF72B6494081F3118820BF80F30F
:10CF9C00118862B6704700BF30BFFFF7FDBF00BFFE
:10CFAC0001B572B60B4A106A00281EBF002111622F
:10CFBC0002F09CFA62B6EFF30580A0F110004FEA84
:10CFCC00C0000549014409C99847BDE8014003491F
:10CFDC0008470000480201204CF7000031D0000047
:10CFEC0002F062F8202080F3118808484FF40061A9
:10CFFC00401880F30988EFF314800221084380F372
:10D00C001488BFF36F8FFFF74BFF0000D007012090
:10D01C00EFF30880EFF3098101B5724600F060F878
:10D02C0001BD00BF044B9968586A884203D003497C
:10D03C004FF080520A6070474802012004ED00E076
:10D04C000C4B9A6A9A6A9A6A920708D55A6B9A6A32
:10D05C00120604D518B19A6A22F080029A62002056
:10D06C00044B9A6A9A6A9A6A9A6A42F0FF029A6226
:10D07C000870704700ED00E00D4B9A6A9A6A9A6A44
:10D08C00920508D59A6B9A6A120404D518B19A6A5B
:10D09C0022F400429A620020054B9A6A9A6AD205E1
:10D0AC0058BF9A6A9A6A42F47F429A620870704733
:10D0BC0000ED00E0094B9A6A9A6A986A9A6A9A6A31
:10D0CC009A6A9A6A9A6A10F480106FEA02426FEABE
:10D0DC00124218BF02209A62704700BF00ED00E0B8
:10D0EC0070B53A4B8AB05B680025C3F3080385F32F
:10D0FC001188BFF36F8F02F07F44B4F17F4F19D1C9
:10D10C00D60717D4550604D4140705D406460125B2
:10D11C0004E012F004050BD00E4600250022033B60
:10D12C008DF80720032B49D8DFE803F00640443D77
:10D13C000646F3E72E46F1E7244BDA6A92073DD414
:10D14C00DC6A14F0804408D028331B78EBB1012042
:10D15C000DF10701FFF774FF04469DF8073093B9F2
:10D16C002022314602A802F096F8099B45B3C3F37E
:10D17C00080222B96FEA53236FEA4323099302A9E9
:10D18C00204602F034F80AB070BD114B1B782BB15D
:10D19C0001200DF10701FFF76FFFDDE70D4B1C8838
:10D1AC00A4B2002CD9D0FFF785FFD5E70DF107010C
:10D1BC000020CFE70DF107010020ECE70024CCE7BD
:10D1CC0023F4FF7323F00103D8E700BF00ED00E068
:10D1DC0029ED00E02AED00E0044B5A6942F0100200
:10D1EC005A615A6942F480625A61704700ED00E05E
:10D1FC00BFF34F8F0549064BCA6802F4E062134334
:10D20C00CB60BFF34F8F00BFFDE700BF00ED00E028
:10D21C000400FA05002320210348C2180133412BD6
:10D22C0082F80013F9D1704700E100E010B5044614
:10D23C0001F0C2F8114B9B68A34207D1EFF30583B1
:10D24C0083B10F4A536843F0805353604FF020036F
:10D25C00EFF3118083F31188BFF36F8FBDE810409B
:10D26C0002F046B94FF02003EFF3118083F31188DD
:10D27C00BFF36F8FFFF78EFDE8E700BF4802012078
:10D28C0000ED00E010B50E4B88B002930D4B0E4C28
:10D29C0003930E4B0E4A049302AB019301A8234651
:10D2AC00012100F003F9002307930A4B0121E41A32
:10D2BC0005A80593069400F003F908B010BD00BF53
:10D2CC000000012000000000000004200600010006
:10D2DC00000001209000012010B50B680C7A23F09F
:10D2EC001F0204F01F031A43CB68640923F01F03C9
:10D2FC00044943EA440343F001038860CA600B61AC
:10D30C0010BD00BF90ED00E02DE9F04F804689463E
:10D31C0014460027484D85B04F4507DA58F827309A
:10D32C005E68C6B31F2E05D86FF01504204605B0F5
:10D33C00BDE8F08FF206F7D1D3F800A01AF01F0F5A
:10D34C00F2D1504601F082FF834606EB0A00013809
:10D35C0001F07CFF8345E7D11BF1160FE4D0631E6F
:10D36C005B45E1DBC5F808B0E86858F82710C5F84C
:10D37C0008B02E6920F01F00D1E900321A449842FF
:10D38C0046F01F0602F1FF3A18D1564505D15FFA57
:10D39C008BF001F039FF0137BEE7C5F808B0EB6838
:10D3AC0022F01F0203F01F031A43EA60E0B201F0FF
:10D3BC002BFF10F1160FB7D0441CECE7C5F808B0E2
:10D3CC002A69013B23F01F0302F01F021343564549
:10D3DC00E0B22B61EBD001F017FF10F1160FA3D0C8
:10D3EC00C5F808B0EA689DF80830013E62F3040302
:10D3FC008DF808302B699DF808205B0863F3471201
:10D40C008DF8082058F827200130D2E90032134457
:10D41C00009323F01F031E44A6EB0A06C4B226F0A9
:10D42C001F060F2C03963FF67FAF20466946FFF789
:10D43C0053FF0134AFE700BF90ED00E00522034B32
:10D44C005A60BFF34F8FBFF36F8F704790ED00E0C2
:10D45C00BFF35F8F0022014B5A60704790ED00E0E4
:10D46C0070B50E4D2E68102E15D80024FFF7F0FF66
:10D47C000B4B0C4A1A63A64205D10B4B1E70FFF7DF
:10D48C00DDFF002070BD6968204601EB0411FFF739
:10D49C0023FF0134EFE74FF0FF30F3E7D8F900003A
:10D4AC0090ED00E0AAFF44008902012010B5034C66
:10D4BC002278FFF729FF207010BD00BF89020120E0
:10D4CC002DE9F74F254C8A4680460027A1464FF0A0
:10D4DC00140B234D57451ADAD8F804300193002B5E
:10D4EC0036D0D8F800100846009101F0AFFEDDE907
:10D4FC00001306465818013801F0A8FE8642194A56
:10D50C0008D014235F436FF0150349F8073003B0BC
:10D51C00BDE8F08F16F1160F2660F8D01378B342E1
:10D52C00F5DD0BFB0793AE60AE60E868197B60F32A
:10D53C00040119732969187B490861F347101873A2
:10D54C00EB6823F01F0363602B6923F01F03236137
:10D55C000137143408F10C08BCE700BF0C020120A1
:10D56C0090ED00E089020120014B1860704700BF6C
:10D57C0004000120064B00F01F0003EB8000D0F8E4
:10D58C00003223F4403343EA0141C0F800127047E3
:10D59C000025844008B5094B1A786AB9012131205D
:10D5AC0019700521FFF72EFC3120FFF70DFC4FF011
:10D5BC000042034BC3F80423002008BD8A0201205B
:10D5CC0000100340284B70B51340B3F5801F46681C
:10D5DC003BD007D8022B3AD0062B13D093B16FF067
:10D5EC00150031E0B3F5800F33D004D81F488342C7
:10D5FC00F5D1072306E01E4883422CD0B3F5A00FCB
:10D60C00EDD10323D00654BFC2F34015032582F499
:10D61C00807412F4007FC2F34020C4F3002406D0BF
:10D62C0012F4006F766818D001228A40B26040EA8A
:10D63C00440040EA0323002001F01F010D4A43EA95
:10D64C008503803142F8213070BD0123DAE70423D1
:10D65C00D8E70223D6E70523D4E7520542BF0122BF
:10D66C008A40F260E3E700BF0600F00006001000FD
:10D67C000200400000258440F8B50D46416805F0D5
:10D68C001F04097AB2F5A03FC76844EA41140AD1D5
:10D69C00664804F01F01803150F82110C80707D5E7
:10D6AC006FF02200A1E0B2F5005FF96800F09E80F7
:10D6BC000121F868A9400143F96001217869A9406A
:10D6CC00B2F5A03FBA690CBF08438843B3F5C02F2D
:10D6DC000CBF0A438A43B3F5802F4FF00003BA61A5
:10D6EC003A69534E0CBF114322EA0101786139614A
:10D6FC00D6F80423D2B203F5A27156F82110C1F367
:10D70C0004218C4277D122FA03F1C90773D5012287
:10D71C009A40D0434749D1E8EFCF0CEA000CC1E85E
:10D72C00EECFBEF1000FF6D19B0003F1804303F561
:10D73C004433D3F8101521F00101C3F81015C6F8C5
:10D74C00082320460021FFF715FFF868E84010F089
:10D75C0001004AD07869E84010F0010258D0BB694A
:10D76C00EB40DB074CD43B6923FA05F515F0010FB0
:10D77C0014BF01270227002301252E4A05FA03F1C5
:10D78C00D2E8EF0F40EA010CC2E8EECFBEF1000F79
:10D79C00F6D1D84010F0010034D19A0002F1804249
:10D7AC0002F54432D2F81055403325F4473525F4B0
:10D7BC004075C2F8105524029B00D2F8105504F4A1
:10D7CC00F8549BB244EA074403F1804303F5443315
:10D7DC002C43C2F8104518601B68D2F8103543F082
:10D7EC000103C2F81035C6F80413F8BD0120A84097
:10D7FC0021EA000160E70133082B7FF47CAFA0E73E
:10D80C000327B8E70133082BB8D16FF01200ECE70F
:10D81C003B69204623FA05F515F0010F0CBF0321D7
:10D82C000221FFF7A7FE1046DFE700BF002584406A
:10D83C00001003403C0201202DE9F0413A4D2E68C6
:10D84C00002E4CD001274FF00008384BDA68D3E992
:10D85C000510014322EA010235491B690C695C4041
:10D86C0022EA040472BB2A602B68002301251F46A0
:10D87C0030483149D0F8042305FA03FC1CEA020FA6
:10D88C000FD051F8232062B103F5A27250F8222078
:10D89C0041F82370C2F3042205FA02F2144351F842
:10D8AC0023200133082BE5D1DCB94EB1012500262C
:10D8BC001E4CE268D4E90510014322EA01020ABBBE
:10D8CC00BDE8F0813A4206D0002108F01F00FFF7B6
:10D8DC0051FE22EA070208F101087F00C2E7344634
:10D8EC00C3E7124B59680029DFD00D68134F8A68C3
:10D8FC00224002D04B6838469847002DD5D0294697
:10D90C002D68F4E715420CD0236906F01F00F34094
:10D91C0013F0010F0CBF03210221FFF72BFE22EAAB
:10D92C00050201366D00CAE77C110340200201207C
:10D93C000025844000100340001103407C000120AE
:10D94C00F0B54B79012B27D0032B22D110268B79E4
:10D95C00032B1ED1CC7924B1012C1AD143681B792D
:10D96C00BBB10A7912B1022A13D10E2247F6122743
:10D97C000B684568BB422D6863D029D8B3F5965F18
:10D98C0062D014D8B3F5167F60D007D8B3F5967F64
:10D99C005FD06FF0220053E00026D8E7B3F5966F06
:10D9AC005AD0B3F5166FF4D14FF41D233CE0B3F508
:10D9BC00615F54D004D8B3F5165FEAD1334B33E032
:10D9CC00B3F5964F4DD0B3F5E14FE2D1304B2BE090
:10D9DC00B3F5E13F47D012D84DF6C027BB4245D036
:10D9EC0005D8B3F5164FD4D14FF41D031CE0B3F595
:10D9FC00614F3ED0B3F5963FCBD1264B14E0B3F537
:10DA0C00E12F39D008D8B3F5613F38D0224FBB4253
:10DA1C00BFD14FF0806307E0B3F5612F32D01F4FB9
:10DA2C00BB42B6D14FF08053C5F82435C36834439C
:10DA3C002243043303C9C5F86C2583E80300002096
:10DA4C00F0BD4FF40003EFE7154BEDE74FF41C333B
:10DA5C00EAE74FF4A033E7E74FF49E23E4E7114BDA
:10DA6C00E2E7114BE0E74FF0EB73DDE74FF46503B2
:10DA7C00DAE74FF46B03D7E74FF0E863D4E74FF0E6
:10DA8C006C73D1E74FF07063CEE700BF00502700F6
:10DA9C0000C0750000903A0190D0030040420F0086
:10DAAC0000B0130000F03A0000A04E00F8B50F686B
:10DABC000D4601214FF0000C4368C6681C6807F046
:10DACC001F02254B9140C4F800C5306099600321BA
:10DADC00803243F822106A68511C1EBF02F01F01ED
:10DAEC00803143F821C0A968C4F80C754F1C18BFCD
:10DAFC000027C4F814251EBF01F01F02803243F822
:10DB0C002270EF687A1C0CD04FF0010C07F01F024A
:10DB1C000CFA02FCC3F808C04FF0030C803243F837
:10DB2C0022C0C4F80875C4F81015C1680431FFF799
:10DB3C0007FF80B90823C4F800356B6801330AD09D
:10DB4C00C4F81001D4F8103101231036C4F8346530
:10DB5C00C4F838352360F8BD0025844030B585B055
:10DB6C0005466C46044B0FCB84E80F002146284633
:10DB7C00FFF79CFF05B030BD60F9000030B585B0F3
:10DB8C0005466C46044B0FCB84E80F002146284613
:10DB9C00FFF78CFF05B030BD70F900002DE9F043A4
:10DBAC000025214C214E54F8048CDFF8889085B068
:10DBBC00A84503D8002005B0BDE8F083636A96E859
:10DBCC0007001F6801AB83E807000C221946384692
:10DBDC0001F051FB90B98FB1636A21691B681A6916
:10DBEC0091420BD19A69A169914207D8E16991429E
:10DBFC0004D962695B6932EA03030AD0276A67B108
:10DC0C000B4801F0B3F8404080F311884FF004004A
:10DC1C0002DFE36801351C44CAE7484601F0A6F868
:10DC2C00636A1F60F5E700BF3CC2000080F900008A
:10DC3C00E7FA000010FB0000014B024A1A60704723
:10DC4C00300001200090D003044B1A7922B9012234
:10DC5C0018601A7102487047024870474002012050
:10DC6C000000AD0B0C00AD0B10B101281ED070479D
:10DC7C00134BD3F81824D3F8181411F4803F194619
:10DC8C0010D002F00302022A0CD1C3F8182500228E
:10DC9C000C4B1A6002221B68094BC3F804230122A7
:10DCAC009A6070470123C1F81835F0E70022064B43
:10DCBC001A601B68024BC3F804031860704700BF5E
:10DCCC0000500040045100400051004038B510B1E4
:10DCDC00012816D038BD0222012142F21075164CD3
:10DCEC00C4F80823154A10601268154A1160D4F85C
:10DCFC001834DB03EED5012001F0D0FB013DF6D149
:10DD0C00E8E7002242F210750E4B0B4CC4F80803E6
:10DD1C001A601B680C4B1860D4F80C34D4F80C2423
:10DD2C0003F00103D203D5D5002BD3D0012001F091
:10DD3C00B5FB013DF0D1CDE700500040045100404F
:10DD4C000C5000400051004004500040154B10B5E1
:10DD5C001A684AB10020012218601B68124BC3F8E4
:10DD6C000823124B1B689847114B1A6882B100228A
:10DD7C001A601B680C4BD3F81824D3F8181402F053
:10DD8C000302012A4FF0020103D1C3F818159A605F
:10DD9C0010BDC3F80813054B0120BDE810401B68EB
:10DDAC00184700BF005100400050004040020120C5
:10DDBC0004510040F8B5104B104F53F8205001306F
:10DDCC0053F82060AE4200D8F8BDD5E900342046A7
:10DDDC00984770B16CB10123E41B2411084A610906
:10DDEC0052F8210004F01F0403FA04F4044342F82F
:10DDFC0021400835E6E700BF54FA00003C00012042
:10DE0C008C000120084BC01A0011084B420953F832
:10DE1C002220012300F01F0003FA00F010420CBF77
:10DE2C0018460020704700BF3C0001208C000120E8
:10DE3C00114970B505460E46104C8C4204D10F4C5E
:10DE4C00B4420AD1002414E02046FFF7DBFF10B1E6
:10DE5C002368AB420DD01034EFE72046FFF7D2FF1A
:10DE6C0008B91034ECE72168284601F0F8F90028CD
:10DE7C00F7D1204670BD00BF8C0001203C00012072
:10DE8C0008B50B4D4FF02002EFF3118382F311888C
:10DE9C00BFF36F8F01F0F0FB012104460228D8BFBD
:10DEAC00084601F0F9FB2C62FFF75EF8EAE700BFC9
:10DEBC00480201200248034A0021121A01F015BA47
:10DECC00900001208C02012008B50648064A07493B
:10DEDC00121A01F0E0F9BDE80840054A0549064868
:10DEEC0001F0D9B9000001209000012080FB000056
:10DEFC000000000080FB000000000120012208B59A
:10DF0C000B4B02201A70FFF755FF0A4A0A490B48BF
:10DF1C0000F02CFF0320FFF74DFF00F023FCFEF771
:10DF2C0035FB074A137B23F00103137308BD00BFB5
:10DF3C008B02012042FB000043FB00004FFB000062
:10DF4C00100101202DE98048344BA7B003F500697E
:10DF5C0089F3088883F30A880024E023304D4FF0BE
:10DF6C00010B85F82230EC772C766C76AC766B6AEC
:10DF7C002C4E43F4E0236B62FFF72EF9FEF7EEFF15
:10DF8C004FF0FF33AB62EB6240F20113264DADF85C
:10DF9C00243006ABAB602046CDE92044FFF70AFFE6
:10DFAC000120FFF707FFDFF8988000F0E5FA1F4B20
:10DFBC006E624FF480621E490593CDE9034B4346D4
:10DFCC00CDE901440094304600F09EFB737B824601
:10DFDC0023F004033046737301F0B3FA0F23154F8B
:10DFEC00CDE902434FF4A072134B1449CDE904B4AC
:10DFFC00CDE90044384600F087FB7B7BEF6023F0D3
:10E00C0004037B7305F118032C75C5F80490C5E95E
:10E01C000633424651463046FEF728FFD007012012
:10E02C0000ED00E0100101204802012076FB000009
:10E03C0090020120900001208DDE0000900601204E
:10E04C0009DF000010B5084C23685BB1FEF788FEB1
:10E05C002368064A184410610021BDE81040184698
:10E06C0001F01ABB10BD00BF800201204802012044
:10E07C00F8B50D464FF02003EFF3118483F31188AC
:10E08C00BFF36F8F4FF4004140F2E73600270022B8
:10E09C00E1FB0067094B30461A6139464FF47A723E
:10E0AC000023FEF7C5F8064B1860064B1D60FFF702
:10E0BC00C9FF84F31188BFF36F8FF8BD48020120AC
:10E0CC00800201207C02012049B9EFF3058030B9B0
:10E0DC00054B5A6A9B689A4201D0FEF75BBE81F3EE
:10E0EC001188BFF36F8F7047480201204FF0200357
:10E0FC00EFF3118183F31188BFF36F8F044B9A6890
:10E10C00D37B013BD37381F31188BFF36F8F7047BF
:10E11C0048020120094B03F12802824205D19B6879
:10E12C008B4202D14B7BDB0606D1D1E90032136066
:10E13C005A600023C1E90033704700BF4802012038
:10E14C0070B5104C064604F1280001F0F4F90546B0
:10E15C00A368597B880644BF41F00801597305B97F
:10E16C00E5684EB95A7BD20606D1AA6922B9DA897A
:10E17C007F2A01D9636270BDAB4201D0FFF762FF09
:10E18C006562F8E74802012010B54FF02003EFF369
:10E19C00118483F31188BFF36F8F084B00209A68AA
:10E1AC00D37B0133D373FFF7CBFF84F31188BFF319
:10E1BC006F8FBDE8104001F0A7B900BF48020120E5
:10E1CC0070B4437BDB0627D183692BBB134A02F166
:10E1DC002801D2E90A348B4218D0BBB190F90E5009
:10E1EC0093F90E60AE420CDD5A68C0E90032106043
:10E1FC005860437B63F07F03437370BC0020FFF7D0
:10E20C009FBF9C4202D01B68002BE9D1C0E90014CF
:10E21C00D36A1860D062ECE770BC704748020120EA
:10E22C0010B54FF02003EFF3118483F31188BFF383
:10E23C006F8F437B590704D484F31188BFF36F8F1E
:10E24C0010BD23F004034373FFF7BAFF2146BDE86A
:10E25C0010400148FFF738BF8C02012070B590F9CF
:10E26C000D300446002B03DA01461648FFF752FF27
:10E27C00154A02F12801D2E90A308B421CD0DBB1DD
:10E28C0094F90E5093F90E60AE4210DD5968C4E952
:10E29C0000310C605C60637B906863F07F03637398
:10E2AC00031B58425841BDE87040FFF749BF9842E4
:10E2BC0002D01B68002BE5D1C4E90010D36A1C60A6
:10E2CC00D462E8E7700201204802012070B54FF0DB
:10E2DC002003EFF3118483F31188BFF36F8F174A78
:10E2EC00174993680D68AB42154606D1FFF7AAFE95
:10E2FC0084F31188BFF36F8F70BD00260E60114937
:10E30C000968C1B1D9897F2915D8597BC90612D1A1
:10E31C000D4993F90E6009688E420CDB0B498B4258
:10E32C0009D01169814203DC1846FFF797FFDDE73E
:10E33C00091A1161DCE700232B61D9E7480201209F
:10E34C0078020120800201207C0201209000012033
:10E35C0070B50446183001F079F94FF02003EFF353
:10E36C00118683F31188BFF36F8F94F90D30002B56
:10E37C0007DA21460E48FFF7CDFE637B03F07F03DF
:10E38C0063730C4D637BA86843F010036373031B2A
:10E39C0058425841FFF7D4FE86F31188BFF36F8FB4
:10E3AC00AB68A34203D1BDE8704001F0ADB870BDBD
:10E3BC007002012048020120036E2DE9F041044651
:10E3CC0003B1984704F1180001F040F94FF0200315
:10E3DC00EFF3118683F31188BFF36F8F637BD8063D
:10E3EC0023D1A2690ABB190607D521461E48FFF79F
:10E3FC0091FE637B03F07F0363731C4B9868021BD5
:10E40C0050425041FFF79CFE0027637B04F130081B
:10E41C0043F008036373256B454500D095B986F32B
:10E42C001188BFF36F8FBDE8F0819B07ECD52146B7
:10E43C00A068FFF76FFE637B23F002036373002376
:10E44C00A360E1E705F1180001F000F9A86829467E
:10E45C00FFF760FE6B7BAF6023F002036B73EF671B
:10E46C002846FFF7ADFED6E77002012048020120D6
:10E47C0010B590F90D300446002B07DA0146084818
:10E48C00FFF748FE637B03F07F036373054B9868CB
:10E49C00031B58425841BDE81040FFF751BE00BF66
:10E4AC0070020120480201202DE9F0410646144675
:10E4BC001D464FF02003EFF3118783F31188BFF350
:10E4CC006F8F01F06EF887F31188BFF36F8F6B1CA1
:10E4DC0008BFB4F1FF3F08D022462B4606F11800C6
:10E4EC000349BDE8F04100F0E7B9BDE8F08100BF99
:10E4FC006FF5000010B50C46064B11469868064B9C
:10E50C001860DDE90223FFF7CFFF2046BDE810407D
:10E51C00FEF740BC4802012078020120F8B50646FF
:10E52C0001F0D4F834184FF02003EFF3118783F384
:10E53C001188BFF36F8F0D4D0D4BA8681860FFF756
:10E54C0097FFA8680B493246F317183000F0B4F95E
:10E55C00AA683846537B43F010035373FEF71AFC3A
:10E56C0001F0B4F8201A20EAE070F8BD480201204E
:10E57C00780201206FF500000021044B084603F1DE
:10E58C002802C3E90A22FFF773BD00BF480201202D
:10E59C00F8B5234C234BA2689A4229D04FF02003A4
:10E5AC00EFF3118683F31188BFF36F8F04F1280505
:10E5BC00A1682846FFF7AEFDA26AA368AA4228D03C
:10E5CC003AB3E06A93F90E1092F90E708F421BDD8C
:10E5DC005168C3E900210B6053605A7B012062F043
:10E5EC007F025A73FFF7ACFD86F31188BFF36F8F70
:10E5FC004FF02003EFF3118083F31188BFF36F8F7B
:10E60C00BDE8F840FEF7C6BB824202D01268002A71
:10E61C00DAD1E26A1D605A60E26A1360E362DCE7F9
:10E62C004802012090000120013108BFB0F1FF3FEA
:10E63C0010B506D10B4B9868FFF78AFE4FF0FF30F0
:10E64C0010BD044648B9FFF7A3FF4FF47A7084FB62
:10E65C000034D80B40EA4440F2E7FFF75FFF044672
:10E66C00F3E700BF48020120014B9868704700BFD8
:10E67C004802012038B504464FF02003EFF3118512
:10E68C0083F31188BFF36F8F00F0B3FF48B1002202
:10E69C00C26700F056FF2946BDE838400448FFF732
:10E6AC0013BDD4E902329A4218BF0133A360F2E7DA
:10E6BC008C02012037B514461D464FF02003EFF3B2
:10E6CC00118183F31188BFF36F8F836843B1013BD2
:10E6DC00836081F31188BFF36F8F002003B030BDCE
:10E6EC0054EA050306D181F31188BFF36F8F6FF0E5
:10E6FC000F00F3E70246CDE900450248FFF7FAFEAA
:10E70C00ECE700BF8C020120F0B500F1300585B0BC
:10E71C00C0E90C550E9D04460573042545730D9DEB
:10E72C0007328573002522F00702C0E91A128E18F1
:10E73C000C9AC573C0E90655056702920B9A0192B3
:10E74C000A9A00923246FEF775FB054BC4E9175541
:10E75C009B6803B15B6F3046636705B0F0BD00BFCB
:10E76C00480201202DE9F0472A4E2B4DB04686B0C9
:10E77C00B54205F1300410D3FFF7B8FC4FF4004953
:10E78C0040F2E7360027244CDFF890A0444521D313
:10E79C0006B0BDE8F047FFF7F7BC54F8043C05930E
:10E7AC0054F8103C049354F8143C039354F8183C5C
:10E7BC00029354F81C3C019354F8203C009354E908
:10E7CC000A2354E90C01FFF79FFF54F8303CDD6538
:10E7DC002546CDE7636A5A1C0DD03046394623EAEC
:10E7EC00E373C9FB0301B94208BFB042256804D1E9
:10E7FC002846FFF715FD3034C8E74FF47A72002332
:10E80C00FDF716FD02460B4605F11800514600F0C7
:10E81C0053F8F0E790000120900001206FF5000004
:10E82C00034B1B680BB9FEF79BBA0020704700BF67
:10E83C008402012030B5036868B10A4A52689042DC
:10E84C0009D043B1D3E90421D0E90445121945EBB1
:10E85C000101C3E90421426813605A600023C0E936
:10E86C00003330BD3400012038B5114B1C689C427C
:10E87C0008BF0024FFF7D4FFB4B1D4E90423141A61
:10E88C0063EBE075B4F1004F75F100030CDA002C6A
:10E89C0075F10003204600DA0020064B1B6913B10A
:10E8AC009842A8BF184638BD6FF00040F5E700BF8E
:10E8BC0034000120480201202DE9F74F0191591C29
:10E8CC0008BFB2F1FF3F82466ED0541C43F10005E5
:10E8DC006FF001034FF0FF3BB3EB04086BEB050942
:10E8EC00B8F1000F79F100030FDBFFF799FF6FF020
:10E8FC000103344AD2E9001C5B1A6BEB0C021E1BA1
:10E90C0062EB0507341A67EBE075019BCAF8083017
:10E91C004FF02003EFF3118683F31188BFF36F8F51
:10E92C00FFF77EFF012C75F100032146B8BF0121D2
:10E93C002A46B8BF0022244B0C1842EBE0751A682B
:10E94C00CAE904459A4201D05F6852B95A68CAF8BC
:10E95C000030CAF804205A68C2F800A0C3F804A01A
:10E96C0014E0D2E90489DAE90445444575EB090160
:10E97C001DDAB8EB040069EB0501C2E9040151682A
:10E98C00CAE90021C1F800A0C2F804A01A689A4292
:10E99C0006D0924504D1FFF767FF0021FEF77AF904
:10E9AC0086F31188BFF36F8F03B0BDE8F08FB4EB23
:10E9BC00080065EB0901BA42CAE90401C6D0126825
:10E9CC00C3E700BF90010120340001202DE9F74F6F
:10E9DC000446FFF77BFC4FF02003EFF3118583F324
:10E9EC001188BFF36F8F2C4BDFF8B0909846CB4655
:10E9FC00DFF8ACA01C60D8F800C0DAF8004066461E
:10EA0C00D9E900235445CDE900234FEAE6770CD031
:10EA1C005CB1D4E904128C4577EB02031BDAB1EB41
:10EA2C000C0062EB0701C4E904010024009BC8F848
:10EA3C000040F218019B47EB0303CBE90023FFF7DF
:10EA4C0013FF2146FEF726F985F31188BFF36F8F6C
:10EA5C0003B0BDE8F08F0022DDE9006700237618D3
:10EA6C00ACEB010047EBE177C8F80000C4E90423E4
:10EA7C002046C9E90067FFF7DDFE85F31188BFF377
:10EA8C006F8FA36898474FF02003EFF3118583F342
:10EA9C001188BFF36F8FAEE7840201209001012033
:10EAAC00340001202DE918484FF02003EFF31184B6
:10EABC0083F31188BFF36F8FFEF752F9074BD3E93D
:10EACC00002312EB000B43F1000C5846614684F313
:10EADC001188BFF36F8FBDE8188800BF900101202B
:10EAEC0038B5064C064DAC4201D3002038BDD4E9F4
:10EAFC000112204600F0EEFD1434F4E790000120E2
:10EB0C009000012060B1436803F00303012B03D094
:10EB1C00032B05D103681BB1002383601846704793
:10EB2C006FF0150070474268034602F00302032A97
:10EB3C004FF0000281600CBF006810465A607047AD
:10EB4C00002070472DE9F04F002506460F461C4665
:10EB5C004FF0FF39A84687B002F1FF3B4FF0000A97
:10EB6C0007E0BAF1000F0BD1252800F0F0803946F0
:10EB7C00B0471BF8010F0028F3D107B0BDE8F08FA8
:10EB8C0064286CD01AD839280AD831285ED22D289E
:10EB9C0000F0E48030284AD0252807D139460BE014
:10EBAC00582800F0A580632800F0CD803946252038
:10EBBC00B04739469BF80000B047CFE7702800F00B
:10EBCC008D800DD869284AD06C2803D16C2D2AD1A0
:10EBDC004C25CEE76828E9D1682D24D14825C8E713
:10EBEC0075283CD01BD87328E0D154F8043B9A46C6
:10EBFC0052461AF8010B002840F0A080B8F1030F20
:10EC0C0040F0B280A2EB030AA9EB0A0ABAF1000F9A
:10EC1C00A4DD39462020B0470AF1FF3AF6E7782800
:10EC2C0066D07A28C2D1002DC0D10546A1E7B9F132
:10EC3C00000F0EDAB8F1000F00F09380A0F130094C
:10EC4C00B8F1000F08BF4FF0020892E7B9F1000FBE
:10EC5C00F4DB0A2303FB0909A9F13009F0E77A2D4B
:10EC6C0006D1A2465AF8042BD317752825D10FE0EC
:10EC7C006C2DF6D04C2D05D1073424F0070AFAE898
:10EC8C000223F2E7752804F1040A226814D1002348
:10EC9C00B8F1030118BF0121B8F1010F0CBF3020EE
:10ECAC00202001910A21CDE9020900913046394614
:10ECBC00FDF792FC544651E7D317002A73F100017B
:10ECCC00E6DA39462D20CDE90423B047DDE90423EB
:10ECDC00524263EB430309F1FF39D9E7394630203F
:10ECEC00B04739467820B0474FF008094FF001087B
:10ECFC009BF80030702B03D154F8042B00230AE04E
:10ED0C006C2DF9D04C2DF7D1073424F007031C4699
:10ED1C005B6854F8082BB8F1030118BF0121B8F156
:10ED2C00010F0CBF3020202001911021CDE90209E8
:10ED3C00009130463946FDF74FFC0FE739460493F6
:10ED4C00B047049B54E7394654F8040B34E7554656
:10ED5C00D0464FF0FF394FF0010A0AE74FF0030895
:10ED6C0007E74FF0010804E7824602E70FB407B546
:10ED7C0004A951F8040B0191FDF77EFC03B05DF87A
:10ED8C0004EB04B07047038B13F0070305D1036841
:10ED9C00002B0CBF002003207047022B05D1438BA6
:10EDAC00002B14BF002004207047012B05D10368F1
:10EDBC00002B0CBF002005207047002070472DE968
:10EDCC00F0410D4607461946281D90461E46FFF792
:10EDDC00AAFE044638B13346424629463846A44674
:10EDEC00BDE8F0416047BDE8F08110B44FF020045D
:10EDFC00EFF3118284F31188BFF36F8F416110BC64
:10EE0C000121FDF747BC10B50C4640B139B1081DC6
:10EE1C00FFF778FE28B9A36833F0030301D06FF035
:10EE2C00150010BD38B50C46054658B151B10B68EC
:10EE3C0043B14B6833B11C22002100F056FA00207C
:10EE4C002C6138BD6FF01500FBE770B504460D461C
:10EE5C00FFF7D9FF061E31DB4FF02003EFF31181D2
:10EE6C0083F31188BFF36F8F4FF6FF76638B208B84
:10EE7C00B34200F007022ED0022A0ED10133638375
:10EE8C001646012381F31188BFF36F8FB3B10023B2
:10EE9C0029462046FFF793FF10E0830701D0062A8E
:10EEAC000ED100232B60636893B9C4E90055164654
:10EEBC0062B90A4620460221FDF7ECFB304670BDD4
:10EECC00052A0CBF6FF022066FF004060023D9E769
:10EEDC001D606560EBE76FF00A06F7E7044608B5BE
:10EEEC00084611461A46A047FFF7BEFBFEF79EF9EF
:10EEFC00836800EBC101B3F5004F2CBF51F8220021
:10EF0C0031F81200704700EBC1018068B0F5004F7A
:10EF1C002CBF41F8223021F81230704708B501227D
:10EF2C00FFF7E6FF400808BD836800EBC101B3F5AD
:10EF3C00004F08D34B681AB143F001034B60704784
:10EF4C0023F00103FAE74B881AB143F001034B801D
:10EF5C00704723F00103FAE753000122FFF7D3BFF8
:10EF6C008368481CB3F5004F2CBF02230123C01A41
:10EF7C00B0FA80F0C0F11F0070472DE9F041044653
:10EF8C000D46FFF7CBFFA3680146B3F5004F01D345
:10EF9C00012835D02046FFF7E3FF04EB8002166909
:10EFAC009EB9012303FA00F0E36829460343E360AA
:10EFBC00204615612B460222FFF7A5FF03222946A6
:10EFCC002046BDE8F041FFF79EBF022231462046A5
:10EFDC00FFF78EFF07460346022229462046FFF71D
:10EFEC0092FF3346032229462046FFF78CFF03226B
:10EFFC0039462B462046FFF786FF02223146DFE7D3
:10F00C00BDE8F081B2F5802FF8B52CBF082504259A
:10F01C000023551B0022CC1D0D4424F0070425F0C1
:10F02C0007052D1BED0804602946C4E90023C4E93B
:10F03C0002522046FFF794FF134686001B36471CEE
:10F04C00F60804F11001BB4229DB324620460021B0
:10F05C00FFF782FFAF1B204601220021FFF764FF60
:10F06C003A463146FFF778FF3346314620460022B8
:10F07C00FFF749FF294620460022FFF76DFF3B466C
:10F08C00294620460022FFF73EFF29462046012252
:10F09C00FFF74AFF3146BDE8F840FFF76EBF41F875
:10F0AC00042B0133CFE77047FEF7C6BD0C23C268B3
:10F0BC00C9B201FB0323186C00F0070070474FF036
:10F0CC002003EFF3118283F31188BFF36F8F036872
:10F0DC0013F0C00301D08B4207D101230360002041
:10F0EC0082F31188BFF36F8F70474FF0FF30F7E753
:10F0FC0010B54FF02003EFF3118283F31188BFF3A7
:10F10C006F8F036803F00704012C06D10160002007
:10F11C0082F31188BFF36F8F10BD03F0C0038B42D5
:10F12C0014BF4FF0FF306FF00F00F1E74FF02003EA
:10F13C00EFF3118283F31188BFF36F8F036803F031
:10F14C00C00343F00203036082F31188BFF36F8F97
:10F15C007047C3681C2010B4CCB204FB00300021F3
:10F16C0010BC10471046FFF785BA0020FEF7AEBD65
:10F17C000020FEF779BD38B50C23CCB263430546AD
:10F18C00C068403380211844FFF799FF002805DB45
:10F19C00696801EBC4014B689847002038BD2DE924
:10F1AC00F0410C25CEB27543C468074605F140000A
:10F1BC00802120449046FFF79BFF00280BDBD8F8FA
:10F1CC0004302C44A363D8F80830E3637B6853F80D
:10F1DC00363098470020BDE8F08170477047002119
:10F1EC00012000F004B8836E83F30B88704700F0A5
:10F1FC0062B90146006800F05EB908B5FDF7CCFEB7
:10F20C00BDE80840FDF70EBF30B50B6885B04C6803
:10F21C009DF808200D89013C0093498923F01F03B8
:10F22C00234465F3040261F3471223F01F030F28F4
:10F23C008DF808200393044605D86946FEF74CF870
:10F24C00204605B030BD6FF01504F9E740E800F337
:10F25C0013F4803FD8B208BF6FF015007047013827
:10F26C00013910F8013F11F8012F934201D1002B05
:10F27C00F7D1981A704710B55AB10139841810F8A3
:10F28C00012B11F8013FA04201D09A42F7D0D01ABD
:10F29C0010BD1046FCE7F0B581EA0004A507034653
:10F2AC000BD0013B0A4491421AD1F0BD002AFCD08C
:10F2BC0011F8014B013A03F8014B9C07F6D1950864
:10F2CC00AC001E1F0F19B94205D16FF00306234481
:10F2DC0006FB0522E5E751F804CB46F804CFF2E72C
:10F2EC0011F8014B03F8014FDDE7034670B5C9B2C5
:10F2FC009C0710D141EA012444EA0445940803EB2D
:10F30C008406B3420DD16FF0030505FB04241C44A5
:10F31C00A34209D170BD002AFCD003F8011B013AAD
:10F32C00E6E743F8045BECE703F8011BF0E74FF06A
:10F33C00FF307047436800205B681B690B607047A7
:10F34C0043685B68586842400A4042405A6000205B
:10F35C007047436800205B689960704743680020E1
:10F36C005B68D9607047436800205A6853685940FD
:10F37C0051607047C36830B5586858B10024814259
:10F38C0013D108685CB99C685860A14200D19860A0
:10F39C000020086072B9002030BD2846EFE72060DD
:10F3AC009868814208BF9C60F2E705680446002D0E
:10F3BC00F3D13AB15A680A60986859600028EAD1CA
:10F3CC009960E9E76FF01500E6E70A46C368043375
:10F3DC0093E8030082E803000020704743681B6831
:10F3EC00D3F88004C3F8800470474368C2681B6874
:10F3FC00D3F8100148B10020127C0A70C3F8100138
:10F40C00D3F8102101221A6070474FF0FF3070477B
:10F41C002DE9F34143688DF807101C68C66800F0AD
:10F42C000DF998BB64254FF0010806F10C07D7E8DD
:10F43C00EF3F002B03D1C7E8E28F002AF7D107D0AA
:10F44C0021200021013DFFF7EFF815F0FF05EED16B
:10F45C000023C4F82031D4F820310DF10703C4F88F
:10F46C00443501234FF47A75C4F84835A360D4F8B9
:10F47C00203123B9012000F011F8013DF7D101230F
:10F48C00E3600023F36002B0BDE8F0810123F36078
:10F49C00DEE708B50020FDF7ABFE004700F0D4B85E
:10F4AC0008B50520FDF7A0FC20B9BDE808400520F3
:10F4BC00FDF78ABC08BDF8B506460F464FF0200391
:10F4CC00EFF3118583F31188BFF36F8FFFF7CCF83F
:10F4DC00394604463046FFF7DCFF85F31188BFF34D
:10F4EC006F8F2046BDE8F840FDF7A0BEFFF776BE53
:10F4FC00034620B9EFF305820AB9FDF74BBC83F341
:10F50C001188BFF36F8F70474FF02003EFF311801A
:10F51C0083F31188BFF36F8FFFF7EABF10B5044672
:10F52C0001468068FEF7F6FD637B23F002036373EC
:10F53C000023A36010BD0368984214BF1846002036
:10F54C00704710B54FF02003EFF3118483F311884B
:10F55C00BFF36F8FFEF734FE84F31188BFF36F8F08
:10F56C0010BD70B504464FF02003EFF3118683F302
:10F57C001188BFF36F8F50F8103CA0F1180513B130
:10F58C002846FFF7CBFF14F80B3C284623F0140356
:10F59C0004F80B3CFEF714FE86F31188BFF36F8F53
:10F5AC0070BD38B504460D46FEF762FF637B43F031
:10F5BC00020363737DB12B68A5609D4212D08BB1A1
:10F5CC0094F90E2093F90E10914205DD5A68C4E9A6
:10F5DC00003214605C6038BD69688B4202D01B68D5
:10F5EC00002BEFD16B68256063606B681C606C60EE
:10F5FC00F1E738B54FF02003EFF3118283F3118854
:10F60C00BFF36F8FFFF797FF044682F31188BFF3A8
:10F61C006F8F88B14FF02003EFF3118583F31188BE
:10F62C00BFF36F8FFFF77AFF85F31188BFF36F8FEE
:10F63C0004F1180000F00AF8204638BDEFF30580FD
:10F64C00003018BF01207047FDF716B910B54FF008
:10F65C002002EFF3118482F31188BFF36F8F0368DC
:10F66C003BB1FFF7E7F8002084F31188BFF36F8FED
:10F67C0010BD6FF01500F7E710B54FF02003EFF356
:10F68C00118483F31188BFF36F8FFFF7EDF884F3C8
:10F69C001188BFF36F8F10BD70B504460E464FF046
:10F6AC002003EFF3118583F31188BFF36F8FFFF7FE
:10F6BC00DBF8012805DDA04203DD31462046FDF7CD
:10F6CC00E9FA85F31188BFF36F8F70BD08B5FFF7AA
:10F6DC00E9F908BD10B400F10C04C0E9034410BCF6
:06F6EC00FFF790BC70471F
:02F6F200FFFF18
:08F6F40078CBFF7F010000004C
:10F6FC005DC8000000000000EDEA00000000000002
:10F70C006DD40000000000008DC900003C000120F9
:10F71C0089DB00004C00012069DB00005C0001204B
:10F72C0099C80000000000004DCC00006C000120C6
:10F73C00A1D500007C000120A9DB00000000000026
:10F74C0000000000EBF1000000000000EBF10000F5
:10F75C0000000000EBF1000000000000EBF10000E5
:10F76C0000000000EBF1000059DD0000A7F40000E0
:10F77C0000000000EBF1000000000000EBF10000C5
:10F78C0000000000EBF1000000000000EBF10000B5
:10F79C0000000000EBF1000000000000EBF10000A5
:10F7AC0000000000EBF1000000000000EBF1000095
:10F7BC0000000000EBF1000000000000EBF1000085
:10F7CC0000000000EBF1000000000000EBF1000075
:10F7DC0000000000EBF1000000000000EBF1000065
:10F7EC0000000000EBF100000000000021CC000044
:10F7FC0000000000EBF1000000000000EBF1000045
:10F80C0000000000EBF1000000000000EBF1000034
:10F81C0000000000EBF1000000000000EBF1000024
:10F82C0000000000EBF1000000000000EBF1000014
:10F83C0000000000EBF1000000000000EBF1000004
:10F84C0000000000EBF1000000000000EBF10000F4
:10F85C0000000000EBF1000000000000EBF10000E4
:10F86C0000000000EBF1000000000000EBF10000D4
:10F87C0000000000EBF1000000000000EBF10000C4
:10F88C0000000000EBF1000000000000EBF10000B4
:10F89C0000000000EBF1000000000000EBF10000A4
:10F8AC0000000000EBF1000000000000EBF1000094
:10F8BC0000000000EBF1000000000000EBF1000084
:10F8CC0000000000EBF100000000000045D8000033
:10F8DC0000000000EBF1000000000000EBF1000064
:10F8EC0000000000EBF1000000000000EBF1000054
:10F8FC0000000000EBF1000000000000EBF1000044
:10F90C0000000000EBF1000000000000EBF1000033
:10F91C0000000000EBF1000000000000EBF1000023
:10F92C0000000000EBF1000000000000EBF1000013
:10F93C0000000000EBF1000000000000EBF1000003
:08F94C0000000000EBF10000D7
:0CF95400FFFFFFFFFFFFFFFFFFFFFFFFB3
:10F960001D0000001C0000001A0000001B00000029
:10F9700001000000000000000F0000000E00000069
:10F98000DEE61E28EAAC45B8025B0000DEE61E2873
:10F990004CBBCE8F025B00000000000000000000A6
:10F9A0000338FDD870470000C5CA000083F100008D
:10F9B000ABF1000000000000B9F0000021CA000017
:10F9C000A1CA00007DF1000077F1000035C90000F8
:10F9D000EDC800000000000002000000E0F9000097
:10F9E00000000000D1FA000006000000E0FF0F0058
:10F9F00000000120D9FA000021000000E0FF0320F0
:10FA0000D1D5000041F300004DF300005FF300008A
:10FA100069F3000073F3000085D6000081F3000055
:10FA200000000000FFFFFFFF0025844000000000F1
:10FA3000F7F300001DF40000E9F300004DD90000C9
:10FA4000D7F3000000800040060000000090004056
:10FA500006000000FCF6000034F700003CF7000050
:10FA60004CF700004CF70000F5FFFFFF4750494FEF
:10FA70005F300053657474696E67204750494F20AA
:10FA800070696E20746F20312C2025640A00536544
:10FA90007474696E67204750494F2070696E2074F6
:10FAA0006F20302C2025640A003031323334353653
:10FAB00037383961626364656600554152545F307E
:10FAC00000434C4F434B007379735F636C6F636B00
:10FAD00000464C4153485F30005352414D5F300067
:10FAE000554152545F31004552524F523A204361C2
:10FAF0006E6E6F742066756C66696C6C2045585428
:10FB00005F41504920726571756573742E0D0A004E
:10FB10005741524E494E473A204F7074696F6E619B
:10FB20006C204558545F415049207265717565736A
:10FB300074206E6F742066756C66696C6C65642EDB
:10FB40000D0A0076322E342E302D6E637331002A6A
:10FB50002A2A20426F6F74696E67205A657068792F
:10FB600072204F53206275696C64202573202573C1
:10FB7000202A2A2A0A006D61696E000000C0000078
:10FB80004DEB00003BF300000000000000C201004C
:10FB90000001030000000000000000000000000061
:10FBA00000C201000001030000000000000000008E
:0CFBB0000090D00334000120340001203C
:10FBBC00C1FA0000BCF90000A8F90000B001012056
:10FBCC00E0FA00004CFA000030FA00001C000120A2
:10FBDC00BAFA000044FA000030FA000008000120D4
:10FBEC00C7FA000000000000000000000000000048
:10FBFC006CFA000024FA000000FA00002002012038
:04FC0C0000000000F4
:040000030000CFED3D
:00000001FF
